:0200000088294D
:10000800FF00030E8301D6000A08D7008A01700892
:10001800A0008B1C17288B102308033A031D1628F1
:10002800FF30A300A30A2008F00057088A00560EE4
:080038008300FF0E7F0E09009A
:0E0040008312031355088A005408820008003A
:10004E0020208A110A128000840AD40A0319D50AC4
:08005E00F003031D2728080030
:10006600831203138501C33087001430A1000030CA
:10007600A2008030F000803022067002031D452861
:100086002108003C03186E2801302305F100710891
:10009600003A031D4F28EC282108F0002208F10041
:1000A600F00DF10D70107008243E840000088800E1
:1000B6000B30FB002630FC005D30FD00FD0B612897
:1000C600FC0B6128FB0B6128000000000130A10237
:1000D600031CA2033C28AC3087000330A10000308B
:1000E600A2008030F000803022067002031D7D28B9
:1000F6002108003C0318A62801302305F1007108E9
:10010600003A031D8728EC282108F0002208F10098
:10011600F00DF10D70107008243E84000008880070
:100126000B30FB002630FC005D30FD00FD0B9928EE
:10013600FC0B9928FB0B9928000000000130A10256
:10014600031CA2037428043085001C3087000F307E
:10015600A1000030A2008030F0008030220670023C
:10016600031DB7282108003C0318EA28013023059F
:10017600F1007108003A031DC128EC280030220660
:10018600031DC72803302106031DCB280230850036
:100196002108F0002208F100F00DF10D7010700832
:1001A600243E8400000888000B30FB002630FC004B
:1001B6005D30FD00FD0BDD28FC0BDD28FB0BDD288B
:1001C600000000000130A102031CA203AE28850135
:0401D60033280800C2
:1001DA00831603138614AC308312870030308500EF
:1001EA000330A1000030A2008030F00080302206E7
:1001FA007002031D02292108003C03182B29013033
:10020A002305F1007108013A031D0C2987292108E9
:10021A00F0002208F100F00DF10D70107008243E74
:10022A008400000888000B30FB002630FC005D309B
:10023A00FD00FD0B1E29FC0B1E29FB0B1E290000CD
:10024A0000000130A102031CA203F928C030870074
:10025A003930850086183A2901302305F1007108E2
:10026A00013A031D392987292F291C3087000230BA
:10027A0085000330A1000030A2008030F0008030F9
:10028A0022067002031D4B292108003C0318742919
:10029A0001302305F1007108013A031D5529872908
:1002AA002108F0002208F100F00DF10D701070081D
:1002BA00243E8400000888000B30FB002630FC0036
:1002CA005D30FD00FD0B6729FC0B6729FB0B6729D5
:1002DA00000000000130A102031CA20342291030D1
:1002EA008700043085008618832901302305F10030
:1002FA007108013A031D822987297829AC308700C1
:06030A008501F528080042
:10031000E221831603130614831288018B170B1630
:10032000831601178801870107309F003930850047
:10033000831285018801FF30870001302305F10019
:100340007108003A031DA629ED20A72933209D2915
:02035000A829DA
:1003C40021308400333083120313F000AE30D400A4
:0803D4000130D50027200800CC
:04035C000034003435
:02036000003467
:1003620000340034013400340234003403340034E5
:1003720004340034053400340634003407340034C5
:100382000834003409340034103400341134003499
:10039200123400341334003414340034153400346D
:1003A200163400341734003418340034193400344D
:1003B2002034003421340034223400342334003415
:02400E004A2F37
:00000001FF
